{
  "contractName": "Distributor",
  "abi": [
    {
      "inputs": [],
      "stateMutability": "nonpayable",
      "type": "constructor"
    },
    {
      "anonymous": false,
      "inputs": [
        {
          "indexed": false,
          "internalType": "string",
          "name": "to",
          "type": "string"
        },
        {
          "indexed": false,
          "internalType": "uint256",
          "name": "amount",
          "type": "uint256"
        }
      ],
      "name": "unclaimedPullDonation",
      "type": "event"
    },
    {
      "inputs": [
        {
          "internalType": "address",
          "name": "oracle_",
          "type": "address"
        }
      ],
      "name": "setOracle",
      "outputs": [],
      "stateMutability": "nonpayable",
      "type": "function"
    },
    {
      "inputs": [],
      "name": "getOracle",
      "outputs": [
        {
          "internalType": "address",
          "name": "",
          "type": "address"
        }
      ],
      "stateMutability": "view",
      "type": "function",
      "constant": true
    },
    {
      "inputs": [
        {
          "internalType": "address",
          "name": "donate_to_",
          "type": "address"
        }
      ],
      "name": "newLink",
      "outputs": [
        {
          "internalType": "uint256",
          "name": "",
          "type": "uint256"
        }
      ],
      "stateMutability": "nonpayable",
      "type": "function"
    },
    {
      "inputs": [
        {
          "internalType": "address",
          "name": "link_owner_",
          "type": "address"
        }
      ],
      "name": "getLink",
      "outputs": [
        {
          "internalType": "uint256",
          "name": "",
          "type": "uint256"
        }
      ],
      "stateMutability": "view",
      "type": "function",
      "constant": true
    },
    {
      "inputs": [
        {
          "internalType": "uint256",
          "name": "key_",
          "type": "uint256"
        },
        {
          "internalType": "address",
          "name": "token_",
          "type": "address"
        },
        {
          "internalType": "uint256",
          "name": "value_",
          "type": "uint256"
        }
      ],
      "name": "donateErc20",
      "outputs": [],
      "stateMutability": "nonpayable",
      "type": "function"
    },
    {
      "inputs": [
        {
          "internalType": "string",
          "name": "network_user_",
          "type": "string"
        },
        {
          "internalType": "address",
          "name": "token_",
          "type": "address"
        },
        {
          "internalType": "uint256",
          "name": "value_",
          "type": "uint256"
        }
      ],
      "name": "donateToPoolErc20",
      "outputs": [],
      "stateMutability": "nonpayable",
      "type": "function"
    },
    {
      "inputs": [
        {
          "internalType": "string",
          "name": "network_user_",
          "type": "string"
        },
        {
          "internalType": "address",
          "name": "bind_",
          "type": "address"
        }
      ],
      "name": "signup",
      "outputs": [],
      "stateMutability": "nonpayable",
      "type": "function"
    },
    {
      "inputs": [
        {
          "internalType": "address",
          "name": "token_",
          "type": "address"
        }
      ],
      "name": "claimPool",
      "outputs": [],
      "stateMutability": "nonpayable",
      "type": "function"
    },
    {
      "inputs": [
        {
          "internalType": "address",
          "name": "token_",
          "type": "address"
        }
      ],
      "name": "getPool",
      "outputs": [
        {
          "internalType": "uint256",
          "name": "",
          "type": "uint256"
        }
      ],
      "stateMutability": "view",
      "type": "function",
      "constant": true
    }
  ],
  "bytecode": "0x6080604052600060025534801561001557600080fd5b50336000806101000a81548173ffffffffffffffffffffffffffffffffffffffff021916908373ffffffffffffffffffffffffffffffffffffffff1602179055506114cb806100656000396000f3fe608060405234801561001057600080fd5b50600436106100935760003560e01c806360765aa51161006657806360765aa5146101085780637adbf97314610138578063833b1fce146101545780639d6abe4f14610172578063bbe4f6db146101a257610093565b806307ad3a9a146100985780631003dd4f146100b457806335b0d5de146100d057806346d7851d146100ec575b600080fd5b6100b260048036038101906100ad9190610eec565b6101d2565b005b6100ce60048036038101906100c99190610e85565b6102af565b005b6100ea60048036038101906100e59190610e31565b61053c565b005b61010660048036038101906101019190610ddf565b610681565b005b610122600480360381019061011d9190610ddf565b610846565b60405161012f9190611196565b60405180910390f35b610152600480360381019061014d9190610ddf565b61097b565b005b61015c610a17565b60405161016991906110cb565b60405180910390f35b61018c60048036038101906101879190610ddf565b610a9a565b6040516101999190611196565b60405180910390f35b6101bc60048036038101906101b79190610ddf565b610b59565b6040516101c99190611196565b60405180910390f35b6002548311156101e157600080fd5b60008290508073ffffffffffffffffffffffffffffffffffffffff166323b872dd336003600088815260200190815260200160002060009054906101000a900473ffffffffffffffffffffffffffffffffffffffff16856040518463ffffffff1660e01b8152600401610256939291906110e6565b602060405180830381600087803b15801561027057600080fd5b505af1158015610284573d6000803e3d6000fd5b505050506040513d601f19601f820116820180604052508101906102a89190610e08565b5050505050565b6000829050600073ffffffffffffffffffffffffffffffffffffffff166006856040516102dc9190611088565b908152602001604051809103902060009054906101000a900473ffffffffffffffffffffffffffffffffffffffff1673ffffffffffffffffffffffffffffffffffffffff161415610467578073ffffffffffffffffffffffffffffffffffffffff166323b872dd3330856040518463ffffffff1660e01b8152600401610364939291906110e6565b602060405180830381600087803b15801561037e57600080fd5b505af1158015610392573d6000803e3d6000fd5b505050506040513d601f19601f820116820180604052508101906103b69190610e08565b50816005856040516103c89190611088565b908152602001604051809103902060008573ffffffffffffffffffffffffffffffffffffffff1673ffffffffffffffffffffffffffffffffffffffff16815260200190815260200160002060008282546104229190611243565b925050819055507f4b12b0889b2f34b744620f041b6bc7fa71f07a51905d8f80d4dbc3e5c08f2bfc848360405161045a929190611146565b60405180910390a1610536565b8073ffffffffffffffffffffffffffffffffffffffff166323b872dd336006876040516104949190611088565b908152602001604051809103902060009054906101000a900473ffffffffffffffffffffffffffffffffffffffff16856040518463ffffffff1660e01b81526004016104e2939291906110e6565b602060405180830381600087803b1580156104fc57600080fd5b505af1158015610510573d6000803e3d6000fd5b505050506040513d601f19601f820116820180604052508101906105349190610e08565b505b50505050565b600160009054906101000a900473ffffffffffffffffffffffffffffffffffffffff1673ffffffffffffffffffffffffffffffffffffffff163373ffffffffffffffffffffffffffffffffffffffff16146105cc576040517f08c379a00000000000000000000000000000000000000000000000000000000081526004016105c390611176565b60405180910390fd5b806006836040516105dd9190611088565b908152602001604051809103902060006101000a81548173ffffffffffffffffffffffffffffffffffffffff021916908373ffffffffffffffffffffffffffffffffffffffff16021790555081600760008373ffffffffffffffffffffffffffffffffffffffff1673ffffffffffffffffffffffffffffffffffffffff168152602001908152602001600020908051906020019061067c929190610c95565b505050565b604051602001610690906110b6565b60405160208183030381529060405280519060200120600760003373ffffffffffffffffffffffffffffffffffffffff1673ffffffffffffffffffffffffffffffffffffffff1681526020019081526020016000206040516020016106f5919061109f565b60405160208183030381529060405280519060200120141561071657600080fd5b60008190508073ffffffffffffffffffffffffffffffffffffffff1663a9059cbb336005600760003373ffffffffffffffffffffffffffffffffffffffff1673ffffffffffffffffffffffffffffffffffffffff168152602001908152602001600020604051610786919061109f565b908152602001604051809103902060008673ffffffffffffffffffffffffffffffffffffffff1673ffffffffffffffffffffffffffffffffffffffff168152602001908152602001600020546040518363ffffffff1660e01b81526004016107ef92919061111d565b602060405180830381600087803b15801561080957600080fd5b505af115801561081d573d6000803e3d6000fd5b505050506040513d601f19601f820116820180604052508101906108419190610e08565b505050565b600080600460008473ffffffffffffffffffffffffffffffffffffffff1673ffffffffffffffffffffffffffffffffffffffff16815260200190815260200160002054146108bd577f4e487b7100000000000000000000000000000000000000000000000000000000600052600160045260246000fd5b6001600260008282546108d09190611243565b925050819055508160036000600254815260200190815260200160002060006101000a81548173ffffffffffffffffffffffffffffffffffffffff021916908373ffffffffffffffffffffffffffffffffffffffff160217905550600254600460008473ffffffffffffffffffffffffffffffffffffffff1673ffffffffffffffffffffffffffffffffffffffff168152602001908152602001600020819055506002549050919050565b60008054906101000a900473ffffffffffffffffffffffffffffffffffffffff1673ffffffffffffffffffffffffffffffffffffffff163373ffffffffffffffffffffffffffffffffffffffff16146109d357600080fd5b80600160006101000a81548173ffffffffffffffffffffffffffffffffffffffff021916908373ffffffffffffffffffffffffffffffffffffffff16021790555050565b60008060009054906101000a900473ffffffffffffffffffffffffffffffffffffffff1673ffffffffffffffffffffffffffffffffffffffff163373ffffffffffffffffffffffffffffffffffffffff1614610a7257600080fd5b600160009054906101000a900473ffffffffffffffffffffffffffffffffffffffff16905090565b600080600460008473ffffffffffffffffffffffffffffffffffffffff1673ffffffffffffffffffffffffffffffffffffffff168152602001908152602001600020541415610b12577f4e487b7100000000000000000000000000000000000000000000000000000000600052600160045260246000fd5b600460008373ffffffffffffffffffffffffffffffffffffffff1673ffffffffffffffffffffffffffffffffffffffff168152602001908152602001600020549050919050565b6000604051602001610b6a906110b6565b60405160208183030381529060405280519060200120600760003373ffffffffffffffffffffffffffffffffffffffff1673ffffffffffffffffffffffffffffffffffffffff168152602001908152602001600020604051602001610bcf919061109f565b6040516020818303038152906040528051906020012014610c8b576005600760003373ffffffffffffffffffffffffffffffffffffffff1673ffffffffffffffffffffffffffffffffffffffff168152602001908152602001600020604051610c38919061109f565b908152602001604051809103902060008373ffffffffffffffffffffffffffffffffffffffff1673ffffffffffffffffffffffffffffffffffffffff168152602001908152602001600020549050610c90565b600090505b919050565b828054610ca190611323565b90600052602060002090601f016020900481019282610cc35760008555610d0a565b82601f10610cdc57805160ff1916838001178555610d0a565b82800160010185558215610d0a579182015b82811115610d09578251825591602001919060010190610cee565b5b509050610d179190610d1b565b5090565b5b80821115610d34576000816000905550600101610d1c565b5090565b6000610d4b610d46846111d6565b6111b1565b905082815260208101848484011115610d6357600080fd5b610d6e8482856112e1565b509392505050565b600081359050610d8581611450565b92915050565b600081519050610d9a81611467565b92915050565b600082601f830112610db157600080fd5b8135610dc1848260208601610d38565b91505092915050565b600081359050610dd98161147e565b92915050565b600060208284031215610df157600080fd5b6000610dff84828501610d76565b91505092915050565b600060208284031215610e1a57600080fd5b6000610e2884828501610d8b565b91505092915050565b60008060408385031215610e4457600080fd5b600083013567ffffffffffffffff811115610e5e57600080fd5b610e6a85828601610da0565b9250506020610e7b85828601610d76565b9150509250929050565b600080600060608486031215610e9a57600080fd5b600084013567ffffffffffffffff811115610eb457600080fd5b610ec086828701610da0565b9350506020610ed186828701610d76565b9250506040610ee286828701610dca565b9150509250925092565b600080600060608486031215610f0157600080fd5b6000610f0f86828701610dca565b9350506020610f2086828701610d76565b9250506040610f3186828701610dca565b9150509250925092565b610f4481611299565b82525050565b6000610f558261121c565b610f5f8185611227565b9350610f6f8185602086016112f0565b610f7881611413565b840191505092915050565b6000610f8e8261121c565b610f988185611238565b9350610fa88185602086016112f0565b80840191505092915050565b60008154610fc181611323565b610fcb8186611238565b94506001821660008114610fe65760018114610ff75761102a565b60ff1983168652818601935061102a565b61100085611207565b60005b8381101561102257815481890152600182019150602081019050611003565b838801955050505b50505092915050565b6000611040601e83611227565b915061104b82611424565b602082019050919050565b6000611063600083611238565b915061106e8261144d565b600082019050919050565b611082816112d7565b82525050565b60006110948284610f83565b915081905092915050565b60006110ab8284610fb4565b915081905092915050565b60006110c182611056565b9150819050919050565b60006020820190506110e06000830184610f3b565b92915050565b60006060820190506110fb6000830186610f3b565b6111086020830185610f3b565b6111156040830184611079565b949350505050565b60006040820190506111326000830185610f3b565b61113f6020830184611079565b9392505050565b600060408201905081810360008301526111608185610f4a565b905061116f6020830184611079565b9392505050565b6000602082019050818103600083015261118f81611033565b9050919050565b60006020820190506111ab6000830184611079565b92915050565b60006111bb6111cc565b90506111c78282611355565b919050565b6000604051905090565b600067ffffffffffffffff8211156111f1576111f06113e4565b5b6111fa82611413565b9050602081019050919050565b60008190508160005260206000209050919050565b600081519050919050565b600082825260208201905092915050565b600081905092915050565b600061124e826112d7565b9150611259836112d7565b9250827fffffffffffffffffffffffffffffffffffffffffffffffffffffffffffffffff0382111561128e5761128d611386565b5b828201905092915050565b60006112a4826112b7565b9050919050565b60008115159050919050565b600073ffffffffffffffffffffffffffffffffffffffff82169050919050565b6000819050919050565b82818337600083830152505050565b60005b8381101561130e5780820151818401526020810190506112f3565b8381111561131d576000848401525b50505050565b6000600282049050600182168061133b57607f821691505b6020821081141561134f5761134e6113b5565b5b50919050565b61135e82611413565b810181811067ffffffffffffffff8211171561137d5761137c6113e4565b5b80604052505050565b7f4e487b7100000000000000000000000000000000000000000000000000000000600052601160045260246000fd5b7f4e487b7100000000000000000000000000000000000000000000000000000000600052602260045260246000fd5b7f4e487b7100000000000000000000000000000000000000000000000000000000600052604160045260246000fd5b6000601f19601f8301169050919050565b7f596f752063616e277420706572666f726d207468697320616374696f6e210000600082015250565b50565b61145981611299565b811461146457600080fd5b50565b611470816112ab565b811461147b57600080fd5b50565b611487816112d7565b811461149257600080fd5b5056fea26469706673582212208d07e3a6d118a3ecb96439bf7ad9be535728600d17de39eb59107674028771e464736f6c63430008040033",
  "immutableReferences": {},
  "source": "pragma solidity ^0.8.0;\nimport \"@openzeppelin/contracts/token/ERC20/ERC20.sol\";\n\ncontract Distributor {\n    address private _owner;\n    address private _oracle;  // Should be linked to the off-chain backend account\n    uint private _key = 0;\n    mapping(uint => address) _donations;  // Link id => owner\n    mapping(address => uint) _key_by_address;  // Link id => owner\n    mapping(string => mapping(address => uint)) _unclaimed_pools;  // username => token => value\n    mapping(string => address) _pool_to_address;  // username => owner\n    mapping(address => string) _address_to_pool;  // username => owner\n\n    event unclaimedPullDonation(string to, uint amount);\n\n    constructor() {\n        _owner = msg.sender;\n    }\n\n    function setOracle(address oracle_) public {  // Set off-chain oracle\n        require(msg.sender == _owner);\n        _oracle = oracle_;\n    }\n\n    function getOracle() public view returns (address) {  // Get off-chain oracle\n        require(msg.sender == _owner);\n        return _oracle;\n    }\n\n    function newLink(address donate_to_) public returns (uint){  // Generating a new id for the donation link\n        assert(_key_by_address[donate_to_] == 0);\n        _key += 1;\n        _donations[_key] = donate_to_;\n        _key_by_address[donate_to_] = _key;\n        return _key;\n    }\n\n    function getLink(address link_owner_) public view returns (uint){  // Generating a new id for the donation link\n        assert(_key_by_address[link_owner_] != 0);\n        return _key_by_address[link_owner_];\n    }\n\n    function donateErc20(uint key_, address token_, uint value_) public {  // Allowing users to donate\n        require(key_ <= _key);\n//        _getAllowance(token_, value_);\n        ERC20 donation = ERC20(token_);\n        donation.transferFrom(msg.sender, _donations[key_], value_);  // Include commissions?\n    }\n\n    function donateToPoolErc20(string memory network_user_, address token_, uint value_) public {  // Donate to unregistered users\n        // Format on network_user: \"twitter:k0rean_rand0m\"\n//        _getAllowance(token_, value_);\n        ERC20 donation = ERC20(token_);\n        if (_pool_to_address[network_user_] == address(0)) {\n            donation.transferFrom(msg.sender, address(this), value_);\n            _unclaimed_pools[network_user_][token_] += value_;\n            emit unclaimedPullDonation(network_user_, value_);\n        } else {\n            donation.transferFrom(msg.sender, _pool_to_address[network_user_], value_);\n        }\n    }\n\n    function signup(string memory network_user_, address bind_) public {  // Allows to Oracle to link social account to address\n        require(msg.sender == _oracle, \"You can't perform this action!\");\n        _pool_to_address[network_user_] = bind_;\n        _address_to_pool[bind_] = network_user_;\n    }\n\n    function claimPool(address token_) public {  // Allows to claim pool, when unregistered user links his/her account\n        require(keccak256(abi.encodePacked(_address_to_pool[msg.sender])) != keccak256(abi.encodePacked(\"\"))); // ToDo nice/nah?\n        ERC20 donation = ERC20(token_);\n        donation.transfer(msg.sender, _unclaimed_pools[_address_to_pool[msg.sender]][token_]);\n    }\n\n    function getPool(address token_) public view returns (uint) {  // Returns pool value for account if exists\n        if (keccak256(abi.encodePacked(_address_to_pool[msg.sender])) != keccak256(abi.encodePacked(\"\"))) {  // ToDo nice/nah?\n            return _unclaimed_pools[_address_to_pool[msg.sender]][token_];\n        } else {\n            return 0;\n        }\n    }\n\n//    function _getAllowance(address token_, uint value_) private {\n//        ERC20 donation = ERC20(token_);\n//        if (donation.allowance(address(this), msg.sender) < value_){\n//            donation.increaseAllowance(msg.sender, value_);\n//        }\n//    }\n\n}\n",
  "sourcePath": "/Users/y.sosunov/git/donation-app/onchain/contracts/Distributor.sol",
  "compiler": {
    "name": "solc",
    "version": "0.8.4+commit.c7e474f2.Emscripten.clang"
  },
  "schemaVersion": "3.3.4",
  "updatedAt": "2021-06-27T10:25:57.765Z",
  "networkType": "ethereum",
  "devdoc": {
    "kind": "dev",
    "methods": {},
    "version": 1
  },
  "userdoc": {
    "kind": "user",
    "methods": {},
    "version": 1
  }
}